{
  "contractName": "Wallet",
  "abi": [
    {
      "inputs": [
        {
          "internalType": "uint256",
          "name": "_approvalCount",
          "type": "uint256"
        },
        {
          "internalType": "address[]",
          "name": "_owners",
          "type": "address[]"
        }
      ],
      "stateMutability": "nonpayable",
      "type": "constructor"
    },
    {
      "anonymous": false,
      "inputs": [
        {
          "indexed": true,
          "internalType": "uint256",
          "name": "id",
          "type": "uint256"
        },
        {
          "indexed": true,
          "internalType": "address",
          "name": "recepient",
          "type": "address"
        },
        {
          "indexed": false,
          "internalType": "uint256",
          "name": "amount",
          "type": "uint256"
        },
        {
          "indexed": true,
          "internalType": "enum Wallet.TransferState",
          "name": "state",
          "type": "uint8"
        }
      ],
      "name": "ReportTransferState",
      "type": "event"
    },
    {
      "inputs": [],
      "name": "MAX_OWNERS",
      "outputs": [
        {
          "internalType": "uint8",
          "name": "",
          "type": "uint8"
        }
      ],
      "stateMutability": "view",
      "type": "function",
      "constant": true
    },
    {
      "inputs": [],
      "name": "MAX_TRANSFERS",
      "outputs": [
        {
          "internalType": "uint8",
          "name": "",
          "type": "uint8"
        }
      ],
      "stateMutability": "view",
      "type": "function",
      "constant": true
    },
    {
      "inputs": [],
      "name": "approvalCount",
      "outputs": [
        {
          "internalType": "uint256",
          "name": "",
          "type": "uint256"
        }
      ],
      "stateMutability": "view",
      "type": "function",
      "constant": true
    },
    {
      "inputs": [],
      "name": "bitmask",
      "outputs": [
        {
          "internalType": "uint256",
          "name": "",
          "type": "uint256"
        }
      ],
      "stateMutability": "view",
      "type": "function",
      "constant": true
    },
    {
      "inputs": [
        {
          "internalType": "address",
          "name": "",
          "type": "address"
        }
      ],
      "name": "owners",
      "outputs": [
        {
          "internalType": "uint256",
          "name": "",
          "type": "uint256"
        }
      ],
      "stateMutability": "view",
      "type": "function",
      "constant": true
    },
    {
      "inputs": [
        {
          "internalType": "uint256",
          "name": "",
          "type": "uint256"
        }
      ],
      "name": "transfers",
      "outputs": [
        {
          "internalType": "uint256",
          "name": "id",
          "type": "uint256"
        },
        {
          "internalType": "address payable",
          "name": "recepient",
          "type": "address"
        },
        {
          "internalType": "uint256",
          "name": "amount",
          "type": "uint256"
        },
        {
          "internalType": "uint256",
          "name": "creationTime",
          "type": "uint256"
        },
        {
          "internalType": "uint256",
          "name": "approvalCount",
          "type": "uint256"
        },
        {
          "internalType": "enum Wallet.TransferState",
          "name": "state",
          "type": "uint8"
        },
        {
          "internalType": "uint256",
          "name": "approvalBitmap",
          "type": "uint256"
        }
      ],
      "stateMutability": "view",
      "type": "function",
      "constant": true
    },
    {
      "inputs": [],
      "name": "deposit",
      "outputs": [],
      "stateMutability": "payable",
      "type": "function",
      "payable": true
    },
    {
      "inputs": [
        {
          "internalType": "uint256",
          "name": "amount",
          "type": "uint256"
        }
      ],
      "name": "withdraw",
      "outputs": [],
      "stateMutability": "payable",
      "type": "function",
      "payable": true
    },
    {
      "inputs": [],
      "name": "getBalance",
      "outputs": [
        {
          "internalType": "uint256",
          "name": "",
          "type": "uint256"
        }
      ],
      "stateMutability": "view",
      "type": "function",
      "constant": true
    },
    {
      "inputs": [],
      "name": "getOwners",
      "outputs": [
        {
          "internalType": "uint256[]",
          "name": "",
          "type": "uint256[]"
        }
      ],
      "stateMutability": "view",
      "type": "function",
      "constant": true
    },
    {
      "inputs": [
        {
          "internalType": "address payable",
          "name": "recepient",
          "type": "address"
        },
        {
          "internalType": "uint256",
          "name": "amount",
          "type": "uint256"
        }
      ],
      "name": "createTransfer",
      "outputs": [
        {
          "internalType": "uint256",
          "name": "",
          "type": "uint256"
        }
      ],
      "stateMutability": "nonpayable",
      "type": "function"
    },
    {
      "inputs": [
        {
          "internalType": "uint256",
          "name": "_id",
          "type": "uint256"
        }
      ],
      "name": "approveTransfer",
      "outputs": [
        {
          "internalType": "uint256",
          "name": "",
          "type": "uint256"
        }
      ],
      "stateMutability": "nonpayable",
      "type": "function"
    },
    {
      "inputs": [
        {
          "internalType": "uint256",
          "name": "_id",
          "type": "uint256"
        }
      ],
      "name": "revokeTransfer",
      "outputs": [
        {
          "internalType": "uint256",
          "name": "",
          "type": "uint256"
        }
      ],
      "stateMutability": "nonpayable",
      "type": "function"
    },
    {
      "inputs": [
        {
          "internalType": "uint256",
          "name": "_id",
          "type": "uint256"
        }
      ],
      "name": "executeTransfer",
      "outputs": [
        {
          "internalType": "uint256",
          "name": "",
          "type": "uint256"
        }
      ],
      "stateMutability": "payable",
      "type": "function",
      "payable": true
    },
    {
      "inputs": [
        {
          "internalType": "uint256",
          "name": "_id",
          "type": "uint256"
        }
      ],
      "name": "cancelFailedTransfer",
      "outputs": [
        {
          "internalType": "uint256",
          "name": "",
          "type": "uint256"
        }
      ],
      "stateMutability": "nonpayable",
      "type": "function"
    }
  ],
  "bytecode": "0x6080604052600180553480156200001557600080fd5b50604051620029f4380380620029f483398181016040528101906200003b9190620003b7565b60ff80168151111562000085576040517f08c379a00000000000000000000000000000000000000000000000000000000081526004016200007c906200046b565b60405180910390fd5b8181511015620000cc576040517f08c379a0000000000000000000000000000000000000000000000000000000008152600401620000c3906200048d565b60405180910390fd5b60005b8151811015620002d2576002828281518110620000f157620000f062000644565b5b60200260200101519080600181540180825580915050600190039060005260206000200160009091909190916101000a81548173ffffffffffffffffffffffffffffffffffffffff021916908373ffffffffffffffffffffffffffffffffffffffff1602179055506000811415620001cb576001600360008484815181106200017f576200017e62000644565b5b602002602001015173ffffffffffffffffffffffffffffffffffffffff1673ffffffffffffffffffffffffffffffffffffffff16815260200190815260200160002081905550620002bc565b60016003600084600185620001e1919062000518565b81518110620001f557620001f462000644565b5b602002602001015173ffffffffffffffffffffffffffffffffffffffff1673ffffffffffffffffffffffffffffffffffffffff16815260200190815260200160002054901b6003600084848151811062000254576200025362000644565b5b602002602001015173ffffffffffffffffffffffffffffffffffffffff1673ffffffffffffffffffffffffffffffffffffffff168152602001908152602001600020819055506001806000828254901b92505081905550600180600082825417925050819055505b8080620002c990620005c7565b915050620000cf565b50505062000773565b6000620002f2620002ec84620004d8565b620004af565b90508083825260208201905082856020860282011115620003185762000317620006a7565b5b60005b858110156200034c578162000331888262000356565b8452602084019350602083019250506001810190506200031b565b5050509392505050565b60008151905062000367816200073f565b92915050565b600082601f830112620003855762000384620006a2565b5b815162000397848260208601620002db565b91505092915050565b600081519050620003b18162000759565b92915050565b60008060408385031215620003d157620003d0620006b1565b5b6000620003e185828601620003a0565b925050602083015167ffffffffffffffff811115620004055762000404620006ac565b5b62000413858286016200036d565b9150509250929050565b60006200042c600f8362000507565b91506200043982620006c7565b602082019050919050565b60006200045360318362000507565b91506200046082620006f0565b604082019050919050565b6000602082019050818103600083015262000486816200041d565b9050919050565b60006020820190508181036000830152620004a88162000444565b9050919050565b6000620004bb620004ce565b9050620004c9828262000591565b919050565b6000604051905090565b600067ffffffffffffffff821115620004f657620004f562000673565b5b602082029050602081019050919050565b600082825260208201905092915050565b6000620005258262000587565b9150620005328362000587565b92508282101562000548576200054762000615565b5b828203905092915050565b6000620005608262000567565b9050919050565b600073ffffffffffffffffffffffffffffffffffffffff82169050919050565b6000819050919050565b6200059c82620006b6565b810181811067ffffffffffffffff82111715620005be57620005bd62000673565b5b80604052505050565b6000620005d48262000587565b91507fffffffffffffffffffffffffffffffffffffffffffffffffffffffffffffffff8214156200060a576200060962000615565b5b600182019050919050565b7f4e487b7100000000000000000000000000000000000000000000000000000000600052601160045260246000fd5b7f4e487b7100000000000000000000000000000000000000000000000000000000600052603260045260246000fd5b7f4e487b7100000000000000000000000000000000000000000000000000000000600052604160045260246000fd5b600080fd5b600080fd5b600080fd5b600080fd5b6000601f19601f8301169050919050565b7f546f6f206d616e79206f776e6572730000000000000000000000000000000000600082015250565b7f417070726f76616c20636f756e742063616e6e6f74206578636565642074686560008201527f206e756d626572206f66206f776e657273000000000000000000000000000000602082015250565b6200074a8162000553565b81146200075657600080fd5b50565b620007648162000587565b81146200077057600080fd5b50565b61227180620007836000396000f3fe6080604052600436106100e85760003560e01c80636884d0a61161008a578063a0e67e2b11610059578063a0e67e2b14610317578063cacca4a014610342578063d0e30db01461037f578063f05d575214610389576100e8565b80636884d0a6146102415780638bed50791461026c5780639377d711146102a95780639789c7fb146102ec576100e8565b80632b9b7573116100c65780632b9b7573146101805780632e1a7d4d146101ab5780633ac172dd146101c757806367a3a05814610204576100e8565b8063022914a7146100ed5780630b8bb1461461012a57806312065fe014610155575b600080fd5b3480156100f957600080fd5b50610114600480360381019061010f91906118af565b6103b9565b6040516101219190611c87565b60405180910390f35b34801561013657600080fd5b5061013f6103d1565b60405161014c9190611d11565b60405180910390f35b34801561016157600080fd5b5061016a6103d6565b6040516101779190611c87565b60405180910390f35b34801561018c57600080fd5b506101956103de565b6040516101a29190611d11565b60405180910390f35b6101c560048036038101906101c0919061191c565b6103e3565b005b3480156101d357600080fd5b506101ee60048036038101906101e991906118dc565b6104af565b6040516101fb9190611c87565b60405180910390f35b34801561021057600080fd5b5061022b6004803603810190610226919061191c565b61071b565b6040516102389190611c87565b60405180910390f35b34801561024d57600080fd5b506102566108ec565b6040516102639190611c87565b60405180910390f35b34801561027857600080fd5b50610293600480360381019061028e919061191c565b6108f2565b6040516102a09190611c87565b60405180910390f35b3480156102b557600080fd5b506102d060048036038101906102cb919061191c565b610c27565b6040516102e39796959493929190611ca2565b60405180910390f35b3480156102f857600080fd5b50610301610ca6565b60405161030e9190611c87565b60405180910390f35b34801561032357600080fd5b5061032c610cac565b6040516103399190611b45565b60405180910390f35b34801561034e57600080fd5b506103696004803603810190610364919061191c565b610dc8565b6040516103769190611c87565b60405180910390f35b6103876110fe565b005b6103a3600480360381019061039e919061191c565b611100565b6040516103b09190611c87565b60405180910390f35b60036020528060005260406000206000915090505481565b60ff81565b600047905090565b60ff81565b6000600360003373ffffffffffffffffffffffffffffffffffffffff1673ffffffffffffffffffffffffffffffffffffffff1681526020019081526020016000205411610465576040517f08c379a000000000000000000000000000000000000000000000000000000000815260040161045c90611ba7565b60405180910390fd5b3373ffffffffffffffffffffffffffffffffffffffff166108fc829081150290604051600060405180830381858888f193505050501580156104ab573d6000803e3d6000fd5b5050565b600080600360003373ffffffffffffffffffffffffffffffffffffffff1673ffffffffffffffffffffffffffffffffffffffff1681526020019081526020016000205411610532576040517f08c379a000000000000000000000000000000000000000000000000000000000815260040161052990611ba7565b60405180910390fd5b81471015610575576040517f08c379a000000000000000000000000000000000000000000000000000000000815260040161056c90611be7565b60405180910390fd5b60006040518060e00160405280600081526020018573ffffffffffffffffffffffffffffffffffffffff16815260200184815260200142815260200160018152602001600160068111156105cc576105cb611efb565b5b8152602001600360003373ffffffffffffffffffffffffffffffffffffffff1673ffffffffffffffffffffffffffffffffffffffff1681526020019081526020016000205460015418815250905060048190806001815401808255809150506001900390600052602060002090600702016000909190919091506000820151816000015560208201518160010160006101000a81548173ffffffffffffffffffffffffffffffffffffffff021916908373ffffffffffffffffffffffffffffffffffffffff16021790555060408201518160020155606082015181600301556080820151816004015560a08201518160050160006101000a81548160ff021916908360068111156106e0576106df611efb565b5b021790555060c082015181600601555050600060016004805490506107059190611d76565b90506107108161141d565b809250505092915050565b600080600360003373ffffffffffffffffffffffffffffffffffffffff1673ffffffffffffffffffffffffffffffffffffffff168152602001908152602001600020541161079e576040517f08c379a000000000000000000000000000000000000000000000000000000000815260040161079590611ba7565b60405180910390fd5b8180600480549050116107e6576040517f08c379a00000000000000000000000000000000000000000000000000000000081526004016107dd90611b67565b60405180910390fd5b600560068111156107fa576107f9611efb565b5b6004848154811061080e5761080d611f2a565b5b906000526020600020906007020160050160009054906101000a900460ff16600681111561083f5761083e611efb565b5b1461087f576040517f08c379a000000000000000000000000000000000000000000000000000000000815260040161087690611c27565b60405180910390fd5b6004600681111561089357610892611efb565b5b600484815481106108a7576108a6611f2a565b5b906000526020600020906007020160050160009054906101000a900460ff1660068111156108d8576108d7611efb565b5b50506108e38361141d565b82915050919050565b60005481565b600080600360003373ffffffffffffffffffffffffffffffffffffffff1673ffffffffffffffffffffffffffffffffffffffff1681526020019081526020016000205411610975576040517f08c379a000000000000000000000000000000000000000000000000000000000815260040161096c90611ba7565b60405180910390fd5b8180600480549050116109bd576040517f08c379a00000000000000000000000000000000000000000000000000000000081526004016109b490611b67565b60405180910390fd5b600160068111156109d1576109d0611efb565b5b600484815481106109e5576109e4611f2a565b5b906000526020600020906007020160050160009054906101000a900460ff166006811115610a1657610a15611efb565b5b14610a56576040517f08c379a0000000000000000000000000000000000000000000000000000000008152600401610a4d90611c67565b60405180910390fd5b6000600360003373ffffffffffffffffffffffffffffffffffffffff1673ffffffffffffffffffffffffffffffffffffffff1681526020019081526020016000205460048581548110610aac57610aab611f2a565b5b9060005260206000209060070201600601541614610aff576040517f08c379a0000000000000000000000000000000000000000000000000000000008152600401610af690611b87565b60405180910390fd5b60048381548110610b1357610b12611f2a565b5b90600052602060002090600702016004016000815480929190610b3590611e2a565b9190505550600360003373ffffffffffffffffffffffffffffffffffffffff1673ffffffffffffffffffffffffffffffffffffffff1681526020019081526020016000205460048481548110610b8e57610b8d611f2a565b5b90600052602060002090600702016006016000828254189250508190555060005460048481548110610bc357610bc2611f2a565b5b906000526020600020906007020160040154108015610c085750600060048481548110610bf357610bf2611f2a565b5b90600052602060002090600702016004015410155b610c1557610c14611e9d565b5b610c1e8361141d565b82915050919050565b60048181548110610c3757600080fd5b90600052602060002090600702016000915090508060000154908060010160009054906101000a900473ffffffffffffffffffffffffffffffffffffffff16908060020154908060030154908060040154908060050160009054906101000a900460ff16908060060154905087565b60015481565b6060600060028054905067ffffffffffffffff811115610ccf57610cce611f59565b5b604051908082528060200260200182016040528015610cfd5781602001602082028036833780820191505090505b50905060005b600280549050811015610dc0576003600060028381548110610d2857610d27611f2a565b5b9060005260206000200160009054906101000a900473ffffffffffffffffffffffffffffffffffffffff1673ffffffffffffffffffffffffffffffffffffffff1673ffffffffffffffffffffffffffffffffffffffff16815260200190815260200160002054828281518110610da157610da0611f2a565b5b6020026020010181815250508080610db890611e54565b915050610d03565b508091505090565b600080600360003373ffffffffffffffffffffffffffffffffffffffff1673ffffffffffffffffffffffffffffffffffffffff1681526020019081526020016000205411610e4b576040517f08c379a0000000000000000000000000000000000000000000000000000000008152600401610e4290611ba7565b60405180910390fd5b818060048054905011610e93576040517f08c379a0000000000000000000000000000000000000000000000000000000008152600401610e8a90611b67565b60405180910390fd5b60016006811115610ea757610ea6611efb565b5b60048481548110610ebb57610eba611f2a565b5b906000526020600020906007020160050160009054906101000a900460ff166006811115610eec57610eeb611efb565b5b14610f2c576040517f08c379a0000000000000000000000000000000000000000000000000000000008152600401610f2390611c07565b60405180910390fd5b6000600360003373ffffffffffffffffffffffffffffffffffffffff1673ffffffffffffffffffffffffffffffffffffffff1681526020019081526020016000205460048581548110610f8257610f81611f2a565b5b906000526020600020906007020160060154161415610fd6576040517f08c379a0000000000000000000000000000000000000000000000000000000008152600401610fcd90611bc7565b60405180910390fd5b60048381548110610fea57610fe9611f2a565b5b9060005260206000209060070201600401600081548092919061100c90611e54565b9190505550600360003373ffffffffffffffffffffffffffffffffffffffff1673ffffffffffffffffffffffffffffffffffffffff168152602001908152602001600020546004848154811061106557611064611f2a565b5b9060005260206000209060070201600601600082825418925050819055506000546004848154811061109a57611099611f2a565b5b906000526020600020906007020160040154111580156110df57506001600484815481106110cb576110ca611f2a565b5b906000526020600020906007020160040154115b6110ec576110eb611e9d565b5b6110f58361141d565b82915050919050565b565b600080600360003373ffffffffffffffffffffffffffffffffffffffff1673ffffffffffffffffffffffffffffffffffffffff1681526020019081526020016000205411611183576040517f08c379a000000000000000000000000000000000000000000000000000000000815260040161117a90611ba7565b60405180910390fd5b8180600480549050116111cb576040517f08c379a00000000000000000000000000000000000000000000000000000000081526004016111c290611b67565b60405180910390fd5b600260068111156111df576111de611efb565b5b600484815481106111f3576111f2611f2a565b5b906000526020600020906007020160050160009054906101000a900460ff16600681111561122457611223611efb565b5b148061128657506005600681111561123f5761123e611efb565b5b6004848154811061125357611252611f2a565b5b906000526020600020906007020160050160009054906101000a900460ff16600681111561128457611283611efb565b5b145b6112c5576040517f08c379a00000000000000000000000000000000000000000000000000000000081526004016112bc90611c47565b60405180910390fd5b600483815481106112d9576112d8611f2a565b5b906000526020600020906007020160010160009054906101000a900473ffffffffffffffffffffffffffffffffffffffff1673ffffffffffffffffffffffffffffffffffffffff166108fc6004858154811061133857611337611f2a565b5b9060005260206000209060070201600201549081150290604051600060405180830381858888f19350505050156113bc5760036004848154811061137f5761137e611f2a565b5b906000526020600020906007020160050160006101000a81548160ff021916908360068111156113b2576113b1611efb565b5b021790555061140b565b6005600484815481106113d2576113d1611f2a565b5b906000526020600020906007020160050160006101000a81548160ff0219169083600681111561140557611404611efb565b5b02179055505b6114148361141d565b82915050919050565b60006004828154811061143357611432611f2a565b5b906000526020600020906007020190506001600681111561145757611456611efb565b5b8160050160009054906101000a900460ff16600681111561147b5761147a611efb565b5b14156115a75760018160040154141561152a578060050160009054906101000a900460ff1660068111156114b2576114b1611efb565b5b8160010160009054906101000a900473ffffffffffffffffffffffffffffffffffffffff1673ffffffffffffffffffffffffffffffffffffffff16837f33b580edde749d01d9dc60756aa54e4bb78855271aa3c7a733dba18367c83fe084600201546040516115219190611c87565b60405180910390a45b6000548160040154141561156a5760028160050160006101000a81548160ff021916908360068111156115605761155f611efb565b5b02179055506115a6565b6000816004015414156115a55760048160050160006101000a81548160ff0219169083600681111561159f5761159e611efb565b5b02179055505b5b5b600260068111156115bb576115ba611efb565b5b8160050160009054906101000a900460ff1660068111156115df576115de611efb565b5b14156115f0576115ee82611100565b505b6005600681111561160457611603611efb565b5b8160050160009054906101000a900460ff16600681111561162857611627611efb565b5b14156116ca578060050160009054906101000a900460ff16600681111561165257611651611efb565b5b8160010160009054906101000a900473ffffffffffffffffffffffffffffffffffffffff1673ffffffffffffffffffffffffffffffffffffffff16837f33b580edde749d01d9dc60756aa54e4bb78855271aa3c7a733dba18367c83fe084600201546040516116c19190611c87565b60405180910390a45b600460068111156116de576116dd611efb565b5b8160050160009054906101000a900460ff16600681111561170257611701611efb565b5b148061174357506003600681111561171d5761171c611efb565b5b8160050160009054906101000a900460ff16600681111561174157611740611efb565b5b145b1561186c578060050160009054906101000a900460ff16600681111561176c5761176b611efb565b5b8160010160009054906101000a900473ffffffffffffffffffffffffffffffffffffffff1673ffffffffffffffffffffffffffffffffffffffff16837f33b580edde749d01d9dc60756aa54e4bb78855271aa3c7a733dba18367c83fe084600201546040516117db9190611c87565b60405180910390a4600482815481106117f7576117f6611f2a565b5b90600052602060002090600702016000808201600090556001820160006101000a81549073ffffffffffffffffffffffffffffffffffffffff02191690556002820160009055600382016000905560048201600090556005820160006101000a81549060ff0219169055600682016000905550505b5050565b60008135905061187f816121f6565b92915050565b6000813590506118948161220d565b92915050565b6000813590506118a981612224565b92915050565b6000602082840312156118c5576118c4611f88565b5b60006118d384828501611870565b91505092915050565b600080604083850312156118f3576118f2611f88565b5b600061190185828601611885565b92505060206119128582860161189a565b9150509250929050565b60006020828403121561193257611931611f88565b5b60006119408482850161189a565b91505092915050565b60006119558383611b18565b60208301905092915050565b61196a81611dbc565b82525050565b600061197b82611d3c565b6119858185611d54565b935061199083611d2c565b8060005b838110156119c15781516119a88882611949565b97506119b383611d47565b925050600181019050611994565b5085935050505092915050565b6119d781611e18565b82525050565b60006119ea601883611d65565b91506119f582611f8d565b602082019050919050565b6000611a0d602a83611d65565b9150611a1882611fb6565b604082019050919050565b6000611a30601483611d65565b9150611a3b82612005565b602082019050919050565b6000611a53602b83611d65565b9150611a5e8261202e565b604082019050919050565b6000611a76601e83611d65565b9150611a818261207d565b602082019050919050565b6000611a99602583611d65565b9150611aa4826120a6565b604082019050919050565b6000611abc602583611d65565b9150611ac7826120f5565b604082019050919050565b6000611adf602783611d65565b9150611aea82612144565b604082019050919050565b6000611b02602483611d65565b9150611b0d82612193565b604082019050919050565b611b2181611e01565b82525050565b611b3081611e01565b82525050565b611b3f81611e0b565b82525050565b60006020820190508181036000830152611b5f8184611970565b905092915050565b60006020820190508181036000830152611b80816119dd565b9050919050565b60006020820190508181036000830152611ba081611a00565b9050919050565b60006020820190508181036000830152611bc081611a23565b9050919050565b60006020820190508181036000830152611be081611a46565b9050919050565b60006020820190508181036000830152611c0081611a69565b9050919050565b60006020820190508181036000830152611c2081611a8c565b9050919050565b60006020820190508181036000830152611c4081611aaf565b9050919050565b60006020820190508181036000830152611c6081611ad2565b9050919050565b60006020820190508181036000830152611c8081611af5565b9050919050565b6000602082019050611c9c6000830184611b27565b92915050565b600060e082019050611cb7600083018a611b27565b611cc46020830189611961565b611cd16040830188611b27565b611cde6060830187611b27565b611ceb6080830186611b27565b611cf860a08301856119ce565b611d0560c0830184611b27565b98975050505050505050565b6000602082019050611d266000830184611b36565b92915050565b6000819050602082019050919050565b600081519050919050565b6000602082019050919050565b600082825260208201905092915050565b600082825260208201905092915050565b6000611d8182611e01565b9150611d8c83611e01565b925082821015611d9f57611d9e611ecc565b5b828203905092915050565b6000611db582611de1565b9050919050565b6000611dc782611de1565b9050919050565b6000819050611ddc826121e2565b919050565b600073ffffffffffffffffffffffffffffffffffffffff82169050919050565b6000819050919050565b600060ff82169050919050565b6000611e2382611dce565b9050919050565b6000611e3582611e01565b91506000821415611e4957611e48611ecc565b5b600182039050919050565b6000611e5f82611e01565b91507fffffffffffffffffffffffffffffffffffffffffffffffffffffffffffffffff821415611e9257611e91611ecc565b5b600182019050919050565b7f4e487b7100000000000000000000000000000000000000000000000000000000600052600160045260246000fd5b7f4e487b7100000000000000000000000000000000000000000000000000000000600052601160045260246000fd5b7f4e487b7100000000000000000000000000000000000000000000000000000000600052602160045260246000fd5b7f4e487b7100000000000000000000000000000000000000000000000000000000600052603260045260246000fd5b7f4e487b7100000000000000000000000000000000000000000000000000000000600052604160045260246000fd5b600080fd5b7f5472616e73616374696f6e20646f656e27742065786973740000000000000000600082015250565b7f546869732061646472657373206469646e277420617070726f7665642074686960008201527f73207472616e7366657200000000000000000000000000000000000000000000602082015250565b7f4f776e65722d6f6e6c79206f7065726174696f6e000000000000000000000000600082015250565b7f54686973206164647265737320616c726561647920617070726f76656420746860008201527f6973207472616e73666572000000000000000000000000000000000000000000602082015250565b7f496e73756666696369656e742062616c616e636520696e2057616c6c65740000600082015250565b7f4f6e6c792070656e64696e67207472616e736665722063616e2062652061707060008201527f726f766564000000000000000000000000000000000000000000000000000000602082015250565b7f4f6e6c79204661696c6564207472616e736665722063616e2062652063616e6360008201527f656c6c6564000000000000000000000000000000000000000000000000000000602082015250565b7f4f6e6c79205265616479206f72204661696c656420737461746573206172652060008201527f616c6c6f77656400000000000000000000000000000000000000000000000000602082015250565b7f4f6e6c792070656e64696e67207472616e736665722063616e2062652072657660008201527f6f6b656400000000000000000000000000000000000000000000000000000000602082015250565b600781106121f3576121f2611efb565b5b50565b6121ff81611daa565b811461220a57600080fd5b50565b61221681611dbc565b811461222157600080fd5b50565b61222d81611e01565b811461223857600080fd5b5056fea2646970667358221220eb88e14f7b537f0be589ad51c770efcc4d930635509ed6e24f2e47440f1d3fa064736f6c63430008050033",
  "immutableReferences": {},
  "source": "//SPDX-License-Identifier: MIT\npragma solidity ^0.8.4;\n\ncontract Wallet {\n    // constants\n    uint8 constant public MAX_OWNERS = 255;\n    uint8 constant public MAX_TRANSFERS = 255;\n    \n    // enums\n    enum TransferState {\n        Deleted, // This state should be only reached when the Transfer item is deleted\n        Pending,\n        Ready, // Transient state\n        Completed,\n        Cancelled, // Transient state\n        Failed,\n        Expired // Transient state\n    }\n    \n    // state variables\n    uint public approvalCount;\n    uint256 public bitmask = 1; // Can accommodate up to 255 owners\n    address[] private owners_array; // Used to cleanup approvals (not worth it in termas of gas)\n    mapping(address => uint256) public owners; // Used for onlyOwner modifier\n    Transfer[] public transfers; // Infinitely growing\n    \n    // structs\n    struct Transfer {\n        uint id;\n        address payable recepient;\n        uint amount;\n        uint creationTime;\n        uint approvalCount;\n        TransferState state;\n        uint256 approvalBitmap;\n    }\n    \n    // events\n    event ReportTransferState(\n        uint indexed id,\n        address indexed recepient,\n        uint amount,\n        TransferState indexed state\n    );\n    \n    // modifiers\n    modifier onlyOwner() {\n        require(owners[msg.sender] > 0, \"Owner-only operation\");\n        _;\n    }\n    \n    modifier transferExists(uint _id) {\n        require(transfers.length > _id, \"Transaction doen't exist\");\n        _;\n    }\n    \n    // constructor\n    constructor(uint _approvalCount, address[] memory _owners) {\n        require(_owners.length <= MAX_OWNERS, \"Too many owners\");\n        require(_owners.length >= _approvalCount, \"Approval count cannot exceed the number of owners\");\n        \n        // Initialize bitmask and encode owners via the bits\n        for(uint i = 0; i < _owners.length; i++) {\n            owners_array.push(_owners[i]);\n            if (i == 0) {\n                owners[_owners[i]] = 1;\n            }\n            else {\n                owners[_owners[i]] = owners[_owners[i-1]] << 1;\n                bitmask <<= 1;\n                bitmask |= 1;\n            }\n        }\n    }\n\n    //public\n    function deposit () public payable  {}\n    \n    function withdraw (uint amount) public payable onlyOwner {\n        payable(msg.sender).transfer(amount);\n    }\n    \n    function getBalance () public view returns (uint) {\n        return address(this).balance;\n    }\n    \n    function getOwners() public view returns (uint256[] memory){\n        uint256[] memory _addr = new uint256[](owners_array.length);\n        for (uint i = 0; i < owners_array.length; i++) {\n            _addr[i] = owners[owners_array[i]];\n        }\n        return _addr;\n    }\n    \n    // Should create a new Transfer object\n    // Only owner is allowed to create TransferState\n    // Do not create transfers if the wallet balance is lower than the specified amount\n    // gas: ?\n    function createTransfer (address payable recepient, uint amount) public onlyOwner returns (uint){\n        require(address(this).balance >= amount, \"Insufficient balance in Wallet\");\n        \n        // Create a new transfer object\n        // approvalCount is set to 1 because the creator is assumed to have approved the transfer he has created\n        Transfer memory new_transfer = Transfer(\n            0,\n            recepient,\n            amount,\n            block.timestamp,\n            1, \n            TransferState.Pending,\n            bitmask ^ owners[msg.sender]\n        );\n        \n       \n        //Register the new transfer\n        transfers.push(new_transfer);\n        uint index = transfers.length - 1;\n        \n        processState(index);\n        \n        return index;\n    }\n    \n    // Approves existing transfers which are in Pending state\n    // Only owner can approve transfers\n    // Each address can approve transation only once\n    // gas: 44471\n    function approveTransfer (uint _id) public onlyOwner transferExists(_id) returns (uint){\n        require(transfers[_id].state == TransferState.Pending, \"Only pending transfer can be approved\");\n        require(transfers[_id].approvalBitmap & owners[msg.sender] != 0, \"This address already approved this transfer\");\n        \n        // Change transfer states\n        transfers[_id].approvalCount++;\n        transfers[_id].approvalBitmap ^= owners[msg.sender];\n        \n        assert(\n            transfers[_id].approvalCount <= approvalCount &&\n            transfers[_id].approvalCount > 1\n        );\n        \n        processState(_id);\n        \n        return _id;\n    }\n    \n    // Revokes approval from existing transfers which are in Pending state\n    // Only owner can revoke transfers\n    // Each address can revoke transation only if it has previously approved it\n    function revokeTransfer (uint _id) public onlyOwner transferExists(_id) returns (uint){\n        require(transfers[_id].state == TransferState.Pending, \"Only pending transfer can be revoked\");\n        require(transfers[_id].approvalBitmap & owners[msg.sender] == 0, \"This address didn't approved this transfer\");\n        \n        // Change transfer states\n        transfers[_id].approvalCount--;\n        transfers[_id].approvalBitmap ^= owners[msg.sender];\n        \n        assert(\n            transfers[_id].approvalCount < approvalCount &&\n            transfers[_id].approvalCount >= 0\n        );\n        \n        processState(_id);\n        \n        return _id;\n    }\n    \n    // Execute transfer that is in Ready state\n    function executeTransfer (uint _id) public payable onlyOwner transferExists(_id) returns (uint) {\n        require(\n            transfers[_id].state == TransferState.Ready ||\n            transfers[_id].state == TransferState.Failed,\n            \"Only Ready or Failed states are allowed\"\n        );\n        \n        if (transfers[_id].recepient.send(transfers[_id].amount))\n            transfers[_id].state = TransferState.Completed;\n        else\n            transfers[_id].state = TransferState.Failed;\n        \n        processState(_id);\n        \n        return _id;\n    }\n    \n    // Cancels transfer that is in Failed state\n    function cancelFailedTransfer (uint _id) public onlyOwner transferExists(_id) returns (uint) {\n        require(transfers[_id].state == TransferState.Failed, \"Only Failed transfer can be cancelled\");\n        \n        transfers[_id].state == TransferState.Cancelled;\n        \n        processState(_id);\n        \n        return _id;\n    }\n    \n\n    //private\n    function processState(uint _id) private {\n        Transfer storage t = transfers[_id];\n        \n        if (t.state == TransferState.Pending) {\n            // emit event only if the transfer has just been created\n            if (t.approvalCount == 1)\n                emit ReportTransferState(_id, t.recepient, t.amount, t.state);\n            \n            if (t.approvalCount == approvalCount)\n                t.state = TransferState.Ready;\n            else if (t.approvalCount == 0)\n                t.state = TransferState.Cancelled;\n        }\n        \n        if (t.state == TransferState.Ready) {\n            executeTransfer(_id);\n        }\n        \n        if (t.state == TransferState.Failed) {\n            emit ReportTransferState(_id, t.recepient, t.amount, t.state);\n        }\n        \n        if (t.state == TransferState.Cancelled || t.state == TransferState.Completed) {\n            emit ReportTransferState(_id, t.recepient, t.amount, t.state);\n            \n            // with deletion: 39259 for the final approval\n            // w/o deletion: 54601 for the final approval\n            delete transfers[_id]; \n        }\n    }\n}\n",
  "sourcePath": "/Users/noname/truffle/wallet/contracts/Wallet.sol",
  "compiler": {
    "name": "solc",
    "version": "0.8.5+commit.a4f2e591.Emscripten.clang"
  },
  "schemaVersion": "3.4.1",
  "updatedAt": "2021-07-05T14:36:57.757Z",
  "networkType": "ethereum",
  "devdoc": {
    "kind": "dev",
    "methods": {},
    "version": 1
  },
  "userdoc": {
    "kind": "user",
    "methods": {},
    "version": 1
  }
}