{
  "contractName": "Wallet5",
  "abi": [
    {
      "inputs": [
        {
          "internalType": "uint256",
          "name": "_approvalCount",
          "type": "uint256"
        },
        {
          "internalType": "address[]",
          "name": "_owners",
          "type": "address[]"
        }
      ],
      "stateMutability": "nonpayable",
      "type": "constructor"
    },
    {
      "anonymous": false,
      "inputs": [
        {
          "indexed": true,
          "internalType": "uint256",
          "name": "id",
          "type": "uint256"
        },
        {
          "indexed": true,
          "internalType": "address",
          "name": "recepient",
          "type": "address"
        },
        {
          "indexed": false,
          "internalType": "uint256",
          "name": "amount",
          "type": "uint256"
        },
        {
          "indexed": true,
          "internalType": "enum Wallet5.TransferState",
          "name": "state",
          "type": "uint8"
        }
      ],
      "name": "ReportTransferState",
      "type": "event"
    },
    {
      "inputs": [],
      "name": "MAX_OWNERS",
      "outputs": [
        {
          "internalType": "uint8",
          "name": "",
          "type": "uint8"
        }
      ],
      "stateMutability": "view",
      "type": "function",
      "constant": true
    },
    {
      "inputs": [],
      "name": "MAX_TRANSFERS",
      "outputs": [
        {
          "internalType": "uint8",
          "name": "",
          "type": "uint8"
        }
      ],
      "stateMutability": "view",
      "type": "function",
      "constant": true
    },
    {
      "inputs": [],
      "name": "approvalCount",
      "outputs": [
        {
          "internalType": "uint256",
          "name": "",
          "type": "uint256"
        }
      ],
      "stateMutability": "view",
      "type": "function",
      "constant": true
    },
    {
      "inputs": [],
      "name": "bitmask",
      "outputs": [
        {
          "internalType": "uint256",
          "name": "",
          "type": "uint256"
        }
      ],
      "stateMutability": "view",
      "type": "function",
      "constant": true
    },
    {
      "inputs": [
        {
          "internalType": "uint256",
          "name": "",
          "type": "uint256"
        }
      ],
      "name": "indexQueue",
      "outputs": [
        {
          "internalType": "uint256",
          "name": "",
          "type": "uint256"
        }
      ],
      "stateMutability": "view",
      "type": "function",
      "constant": true
    },
    {
      "inputs": [
        {
          "internalType": "address",
          "name": "",
          "type": "address"
        }
      ],
      "name": "owners",
      "outputs": [
        {
          "internalType": "uint256",
          "name": "",
          "type": "uint256"
        }
      ],
      "stateMutability": "view",
      "type": "function",
      "constant": true
    },
    {
      "inputs": [
        {
          "internalType": "uint256",
          "name": "",
          "type": "uint256"
        }
      ],
      "name": "transfers",
      "outputs": [
        {
          "internalType": "uint256",
          "name": "id",
          "type": "uint256"
        },
        {
          "internalType": "address payable",
          "name": "recepient",
          "type": "address"
        },
        {
          "internalType": "uint256",
          "name": "amount",
          "type": "uint256"
        },
        {
          "internalType": "uint256",
          "name": "creationTime",
          "type": "uint256"
        },
        {
          "internalType": "uint256",
          "name": "approvalCount",
          "type": "uint256"
        },
        {
          "internalType": "enum Wallet5.TransferState",
          "name": "state",
          "type": "uint8"
        },
        {
          "internalType": "uint256",
          "name": "approvalBitmap",
          "type": "uint256"
        }
      ],
      "stateMutability": "view",
      "type": "function",
      "constant": true
    },
    {
      "inputs": [],
      "name": "deposit",
      "outputs": [],
      "stateMutability": "payable",
      "type": "function",
      "payable": true
    },
    {
      "inputs": [
        {
          "internalType": "uint256",
          "name": "amount",
          "type": "uint256"
        }
      ],
      "name": "withdraw",
      "outputs": [],
      "stateMutability": "payable",
      "type": "function",
      "payable": true
    },
    {
      "inputs": [],
      "name": "getBalance",
      "outputs": [
        {
          "internalType": "uint256",
          "name": "",
          "type": "uint256"
        }
      ],
      "stateMutability": "view",
      "type": "function",
      "constant": true
    },
    {
      "inputs": [],
      "name": "getOwners",
      "outputs": [
        {
          "internalType": "uint256[]",
          "name": "",
          "type": "uint256[]"
        }
      ],
      "stateMutability": "view",
      "type": "function",
      "constant": true
    },
    {
      "inputs": [],
      "name": "getAvailableIndices",
      "outputs": [
        {
          "internalType": "uint256[]",
          "name": "",
          "type": "uint256[]"
        }
      ],
      "stateMutability": "view",
      "type": "function",
      "constant": true
    },
    {
      "inputs": [
        {
          "internalType": "address payable",
          "name": "recepient",
          "type": "address"
        },
        {
          "internalType": "uint256",
          "name": "amount",
          "type": "uint256"
        }
      ],
      "name": "createTransfer",
      "outputs": [
        {
          "internalType": "uint256",
          "name": "",
          "type": "uint256"
        }
      ],
      "stateMutability": "nonpayable",
      "type": "function"
    },
    {
      "inputs": [
        {
          "internalType": "uint256",
          "name": "_id",
          "type": "uint256"
        }
      ],
      "name": "approveTransfer",
      "outputs": [
        {
          "internalType": "uint256",
          "name": "",
          "type": "uint256"
        }
      ],
      "stateMutability": "nonpayable",
      "type": "function"
    },
    {
      "inputs": [
        {
          "internalType": "uint256",
          "name": "_id",
          "type": "uint256"
        }
      ],
      "name": "revokeTransfer",
      "outputs": [
        {
          "internalType": "uint256",
          "name": "",
          "type": "uint256"
        }
      ],
      "stateMutability": "nonpayable",
      "type": "function"
    },
    {
      "inputs": [
        {
          "internalType": "uint256",
          "name": "_id",
          "type": "uint256"
        }
      ],
      "name": "executeTransfer",
      "outputs": [
        {
          "internalType": "uint256",
          "name": "",
          "type": "uint256"
        }
      ],
      "stateMutability": "payable",
      "type": "function",
      "payable": true
    },
    {
      "inputs": [
        {
          "internalType": "uint256",
          "name": "_id",
          "type": "uint256"
        }
      ],
      "name": "cancelFailedTransfer",
      "outputs": [
        {
          "internalType": "uint256",
          "name": "",
          "type": "uint256"
        }
      ],
      "stateMutability": "nonpayable",
      "type": "function"
    }
  ],
  "bytecode": "0x608060405260016002553480156200001657600080fd5b5060405162002b4438038062002b4483398181016040528101906200003c9190620003c1565b60ff80168151111562000086576040517f08c379a00000000000000000000000000000000000000000000000000000000081526004016200007d9062000475565b60405180910390fd5b8181511015620000cd576040517f08c379a0000000000000000000000000000000000000000000000000000000008152600401620000c49062000497565b60405180910390fd5b60005b8151811015620002d5576004828281518110620000f257620000f16200064e565b5b60200260200101519080600181540180825580915050600190039060005260206000200160009091909190916101000a81548173ffffffffffffffffffffffffffffffffffffffff021916908373ffffffffffffffffffffffffffffffffffffffff1602179055506000811415620001cc5760016005600084848151811062000180576200017f6200064e565b5b602002602001015173ffffffffffffffffffffffffffffffffffffffff1673ffffffffffffffffffffffffffffffffffffffff16815260200190815260200160002081905550620002bf565b60016005600084600185620001e2919062000522565b81518110620001f657620001f56200064e565b5b602002602001015173ffffffffffffffffffffffffffffffffffffffff1673ffffffffffffffffffffffffffffffffffffffff16815260200190815260200160002054901b600560008484815181106200025557620002546200064e565b5b602002602001015173ffffffffffffffffffffffffffffffffffffffff1673ffffffffffffffffffffffffffffffffffffffff16815260200190815260200160002081905550600160026000828254901b9250508190555060016002600082825417925050819055505b8080620002cc90620005d1565b915050620000d0565b506000808190555050506200077d565b6000620002fc620002f684620004e2565b620004b9565b90508083825260208201905082856020860282011115620003225762000321620006b1565b5b60005b858110156200035657816200033b888262000360565b84526020840193506020830192505060018101905062000325565b5050509392505050565b600081519050620003718162000749565b92915050565b600082601f8301126200038f576200038e620006ac565b5b8151620003a1848260208601620002e5565b91505092915050565b600081519050620003bb8162000763565b92915050565b60008060408385031215620003db57620003da620006bb565b5b6000620003eb85828601620003aa565b925050602083015167ffffffffffffffff8111156200040f576200040e620006b6565b5b6200041d8582860162000377565b9150509250929050565b600062000436600f8362000511565b91506200044382620006d1565b602082019050919050565b60006200045d60318362000511565b91506200046a82620006fa565b604082019050919050565b60006020820190508181036000830152620004908162000427565b9050919050565b60006020820190508181036000830152620004b2816200044e565b9050919050565b6000620004c5620004d8565b9050620004d382826200059b565b919050565b6000604051905090565b600067ffffffffffffffff8211156200050057620004ff6200067d565b5b602082029050602081019050919050565b600082825260208201905092915050565b60006200052f8262000591565b91506200053c8362000591565b9250828210156200055257620005516200061f565b5b828203905092915050565b60006200056a8262000571565b9050919050565b600073ffffffffffffffffffffffffffffffffffffffff82169050919050565b6000819050919050565b620005a682620006c0565b810181811067ffffffffffffffff82111715620005c857620005c76200067d565b5b80604052505050565b6000620005de8262000591565b91507fffffffffffffffffffffffffffffffffffffffffffffffffffffffffffffffff8214156200061457620006136200061f565b5b600182019050919050565b7f4e487b7100000000000000000000000000000000000000000000000000000000600052601160045260246000fd5b7f4e487b7100000000000000000000000000000000000000000000000000000000600052603260045260246000fd5b7f4e487b7100000000000000000000000000000000000000000000000000000000600052604160045260246000fd5b600080fd5b600080fd5b600080fd5b600080fd5b6000601f19601f8301169050919050565b7f546f6f206d616e79206f776e6572730000000000000000000000000000000000600082015250565b7f417070726f76616c20636f756e742063616e6e6f74206578636565642074686560008201527f206e756d626572206f66206f776e657273000000000000000000000000000000602082015250565b62000754816200055d565b81146200076057600080fd5b50565b6200076e8162000591565b81146200077a57600080fd5b50565b6123b7806200078d6000396000f3fe6080604052600436106100fe5760003560e01c80636884d0a6116100955780639789c7fb116100645780639789c7fb1461036a578063a0e67e2b14610395578063cacca4a0146103c0578063d0e30db0146103fd578063f05d575214610407576100fe565b80636884d0a614610282578063809924f7146102ad5780638bed5079146102ea5780639377d71114610327576100fe565b80632e1a7d4d116100d15780632e1a7d4d146101c15780633ac172dd146101dd5780636615ff281461021a57806367a3a05814610245576100fe565b8063022914a7146101035780630b8bb1461461014057806312065fe01461016b5780632b9b757314610196575b600080fd5b34801561010f57600080fd5b5061012a6004803603810190610125919061195a565b610437565b6040516101379190611d75565b60405180910390f35b34801561014c57600080fd5b5061015561044f565b6040516101629190611dff565b60405180910390f35b34801561017757600080fd5b50610180610454565b60405161018d9190611d75565b60405180910390f35b3480156101a257600080fd5b506101ab61045c565b6040516101b89190611dff565b60405180910390f35b6101db60048036038101906101d691906119c7565b610461565b005b3480156101e957600080fd5b5061020460048036038101906101ff9190611987565b61052d565b6040516102119190611d75565b60405180910390f35b34801561022657600080fd5b5061022f610853565b60405161023c9190611c13565b60405180910390f35b34801561025157600080fd5b5061026c600480360381019061026791906119c7565b6108ab565b6040516102799190611d75565b60405180910390f35b34801561028e57600080fd5b50610297610a1f565b6040516102a49190611d75565b60405180910390f35b3480156102b957600080fd5b506102d460048036038101906102cf91906119c7565b610a25565b6040516102e19190611d75565b60405180910390f35b3480156102f657600080fd5b50610311600480360381019061030c91906119c7565b610a49565b60405161031e9190611d75565b60405180910390f35b34801561033357600080fd5b5061034e600480360381019061034991906119c7565b610d41565b6040516103619796959493929190611d90565b60405180910390f35b34801561037657600080fd5b5061037f610db6565b60405161038c9190611d75565b60405180910390f35b3480156103a157600080fd5b506103aa610dbc565b6040516103b79190611c13565b60405180910390f35b3480156103cc57600080fd5b506103e760048036038101906103e291906119c7565b610ed8565b6040516103f49190611d75565b60405180910390f35b6104056111d1565b005b610421600480360381019061041c91906119c7565b6111d3565b60405161042e9190611d75565b60405180910390f35b60056020528060005260406000206000915090505481565b60ff81565b600047905090565b600381565b6000600560003373ffffffffffffffffffffffffffffffffffffffff1673ffffffffffffffffffffffffffffffffffffffff16815260200190815260200160002054116104e3576040517f08c379a00000000000000000000000000000000000000000000000000000000081526004016104da90611c55565b60405180910390fd5b3373ffffffffffffffffffffffffffffffffffffffff166108fc829081150290604051600060405180830381858888f19350505050158015610529573d6000803e3d6000fd5b5050565b600080600560003373ffffffffffffffffffffffffffffffffffffffff1673ffffffffffffffffffffffffffffffffffffffff16815260200190815260200160002054116105b0576040517f08c379a00000000000000000000000000000000000000000000000000000000081526004016105a790611c55565b60405180910390fd5b814710156105f3576040517f08c379a00000000000000000000000000000000000000000000000000000000081526004016105ea90611cb5565b60405180910390fd5b600360ff16600054108061060c57506000600380549050115b61064b576040517f08c379a000000000000000000000000000000000000000000000000000000000815260040161064290611c75565b60405180910390fd5b60008060038054905011156106b9576003600160038054905061066e9190611e64565b8154811061067f5761067e612047565b5b90600052602060002001549050600380548061069e5761069d612018565b5b600190038181906000526020600020016000905590556106d6565b60005490506000808154809291906106d090611f42565b91905055505b60006040518060e001604052808381526020018673ffffffffffffffffffffffffffffffffffffffff168152602001858152602001428152602001600181526020016001600681111561072c5761072b611fe9565b5b8152602001600560003373ffffffffffffffffffffffffffffffffffffffff1673ffffffffffffffffffffffffffffffffffffffff16815260200190815260200160002054600254188152509050806006836003811061078f5761078e612047565b5b600702016000820151816000015560208201518160010160006101000a81548173ffffffffffffffffffffffffffffffffffffffff021916908373ffffffffffffffffffffffffffffffffffffffff16021790555060408201518160020155606082015181600301556080820151816004015560a08201518160050160006101000a81548160ff0219169083600681111561082d5761082c611fe9565b5b021790555060c08201518160060155905050610848826114b3565b819250505092915050565b606060038054806020026020016040519081016040528092919081815260200182805480156108a157602002820191906000526020600020905b81548152602001906001019080831161088d575b5050505050905090565b600080600560003373ffffffffffffffffffffffffffffffffffffffff1673ffffffffffffffffffffffffffffffffffffffff168152602001908152602001600020541161092e576040517f08c379a000000000000000000000000000000000000000000000000000000000815260040161092590611c55565b60405180910390fd5b6005600681111561094257610941611fe9565b5b6006836003811061095657610955612047565b5b6007020160050160009054906101000a900460ff16600681111561097d5761097c611fe9565b5b146109bd576040517f08c379a00000000000000000000000000000000000000000000000000000000081526004016109b490611cf5565b60405180910390fd5b600460068111156109d1576109d0611fe9565b5b600683600381106109e5576109e4612047565b5b6007020160050160009054906101000a900460ff166006811115610a0c57610a0b611fe9565b5b5050610a17826114b3565b819050919050565b60015481565b60038181548110610a3557600080fd5b906000526020600020016000915090505481565b600080600560003373ffffffffffffffffffffffffffffffffffffffff1673ffffffffffffffffffffffffffffffffffffffff1681526020019081526020016000205411610acc576040517f08c379a0000000000000000000000000000000000000000000000000000000008152600401610ac390611c55565b60405180910390fd5b81600360ff168110610b13576040517f08c379a0000000000000000000000000000000000000000000000000000000008152600401610b0a90611d55565b60405180910390fd5b60016006811115610b2757610b26611fe9565b5b60068460038110610b3b57610b3a612047565b5b6007020160050160009054906101000a900460ff166006811115610b6257610b61611fe9565b5b14610ba2576040517f08c379a0000000000000000000000000000000000000000000000000000000008152600401610b9990611d35565b60405180910390fd5b6000600560003373ffffffffffffffffffffffffffffffffffffffff1673ffffffffffffffffffffffffffffffffffffffff1681526020019081526020016000205460068560038110610bf857610bf7612047565b5b60070201600601541614610c41576040517f08c379a0000000000000000000000000000000000000000000000000000000008152600401610c3890611c35565b60405180910390fd5b60068360038110610c5557610c54612047565b5b600702016004016000815480929190610c6d90611f18565b9190505550600560003373ffffffffffffffffffffffffffffffffffffffff1673ffffffffffffffffffffffffffffffffffffffff1681526020019081526020016000205460068460038110610cc657610cc5612047565b5b600702016006016000828254189250508190555060015460068460038110610cf157610cf0612047565b5b6007020160040154108015610d225750600060068460038110610d1757610d16612047565b5b600702016004015410155b610d2f57610d2e611f8b565b5b610d38836114b3565b82915050919050565b60068160038110610d5157600080fd5b600702016000915090508060000154908060010160009054906101000a900473ffffffffffffffffffffffffffffffffffffffff16908060020154908060030154908060040154908060050160009054906101000a900460ff16908060060154905087565b60025481565b6060600060048054905067ffffffffffffffff811115610ddf57610dde612076565b5b604051908082528060200260200182016040528015610e0d5781602001602082028036833780820191505090505b50905060005b600480549050811015610ed0576005600060048381548110610e3857610e37612047565b5b9060005260206000200160009054906101000a900473ffffffffffffffffffffffffffffffffffffffff1673ffffffffffffffffffffffffffffffffffffffff1673ffffffffffffffffffffffffffffffffffffffff16815260200190815260200160002054828281518110610eb157610eb0612047565b5b6020026020010181815250508080610ec890611f42565b915050610e13565b508091505090565b600080600560003373ffffffffffffffffffffffffffffffffffffffff1673ffffffffffffffffffffffffffffffffffffffff1681526020019081526020016000205411610f5b576040517f08c379a0000000000000000000000000000000000000000000000000000000008152600401610f5290611c55565b60405180910390fd5b81600360ff168110610fa2576040517f08c379a0000000000000000000000000000000000000000000000000000000008152600401610f9990611d55565b60405180910390fd5b60016006811115610fb657610fb5611fe9565b5b60068460038110610fca57610fc9612047565b5b6007020160050160009054906101000a900460ff166006811115610ff157610ff0611fe9565b5b14611031576040517f08c379a000000000000000000000000000000000000000000000000000000000815260040161102890611cd5565b60405180910390fd5b6000600560003373ffffffffffffffffffffffffffffffffffffffff1673ffffffffffffffffffffffffffffffffffffffff168152602001908152602001600020546006856003811061108757611086612047565b5b60070201600601541614156110d1576040517f08c379a00000000000000000000000000000000000000000000000000000000081526004016110c890611c95565b60405180910390fd5b600683600381106110e5576110e4612047565b5b6007020160040160008154809291906110fd90611f42565b9190505550600560003373ffffffffffffffffffffffffffffffffffffffff1673ffffffffffffffffffffffffffffffffffffffff168152602001908152602001600020546006846003811061115657611155612047565b5b60070201600601600082825418925050819055506001546006846003811061118157611180612047565b5b6007020160040154111580156111b257506001600684600381106111a8576111a7612047565b5b6007020160040154115b6111bf576111be611f8b565b5b6111c8836114b3565b82915050919050565b565b600080600560003373ffffffffffffffffffffffffffffffffffffffff1673ffffffffffffffffffffffffffffffffffffffff1681526020019081526020016000205411611256576040517f08c379a000000000000000000000000000000000000000000000000000000000815260040161124d90611c55565b60405180910390fd5b81600360ff16811061129d576040517f08c379a000000000000000000000000000000000000000000000000000000000815260040161129490611d55565b60405180910390fd5b600260068111156112b1576112b0611fe9565b5b600684600381106112c5576112c4612047565b5b6007020160050160009054906101000a900460ff1660068111156112ec576112eb611fe9565b5b148061134457506005600681111561130757611306611fe9565b5b6006846003811061131b5761131a612047565b5b6007020160050160009054906101000a900460ff16600681111561134257611341611fe9565b5b145b611383576040517f08c379a000000000000000000000000000000000000000000000000000000000815260040161137a90611d15565b60405180910390fd5b6006836003811061139757611396612047565b5b6007020160010160009054906101000a900473ffffffffffffffffffffffffffffffffffffffff1673ffffffffffffffffffffffffffffffffffffffff166108fc600685600381106113ec576113eb612047565b5b60070201600201549081150290604051600060405180830381858888f193505050501561145c5760036006846003811061142957611428612047565b5b6007020160050160006101000a81548160ff0219169083600681111561145257611451611fe9565b5b02179055506114a1565b60056006846003811061147257611471612047565b5b6007020160050160006101000a81548160ff0219169083600681111561149b5761149a611fe9565b5b02179055505b6114aa836114b3565b82915050919050565b6000600682600381106114c9576114c8612047565b5b600702019050600160068111156114e3576114e2611fe9565b5b8160050160009054906101000a900460ff16600681111561150757611506611fe9565b5b1415611633576001816004015414156115b6578060050160009054906101000a900460ff16600681111561153e5761153d611fe9565b5b8160010160009054906101000a900473ffffffffffffffffffffffffffffffffffffffff1673ffffffffffffffffffffffffffffffffffffffff16837f33b580edde749d01d9dc60756aa54e4bb78855271aa3c7a733dba18367c83fe084600201546040516115ad9190611d75565b60405180910390a45b600154816004015414156115f65760028160050160006101000a81548160ff021916908360068111156115ec576115eb611fe9565b5b0217905550611632565b6000816004015414156116315760048160050160006101000a81548160ff0219169083600681111561162b5761162a611fe9565b5b02179055505b5b5b6002600681111561164757611646611fe9565b5b8160050160009054906101000a900460ff16600681111561166b5761166a611fe9565b5b141561167c5761167a826111d3565b505b600560068111156116905761168f611fe9565b5b8160050160009054906101000a900460ff1660068111156116b4576116b3611fe9565b5b1415611756578060050160009054906101000a900460ff1660068111156116de576116dd611fe9565b5b8160010160009054906101000a900473ffffffffffffffffffffffffffffffffffffffff1673ffffffffffffffffffffffffffffffffffffffff16837f33b580edde749d01d9dc60756aa54e4bb78855271aa3c7a733dba18367c83fe0846002015460405161174d9190611d75565b60405180910390a45b6004600681111561176a57611769611fe9565b5b8160050160009054906101000a900460ff16600681111561178e5761178d611fe9565b5b14806117cf5750600360068111156117a9576117a8611fe9565b5b8160050160009054906101000a900460ff1660068111156117cd576117cc611fe9565b5b145b15611917578060050160009054906101000a900460ff1660068111156117f8576117f7611fe9565b5b8160010160009054906101000a900473ffffffffffffffffffffffffffffffffffffffff1673ffffffffffffffffffffffffffffffffffffffff16837f33b580edde749d01d9dc60756aa54e4bb78855271aa3c7a733dba18367c83fe084600201546040516118679190611d75565b60405180910390a46006826003811061188357611882612047565b5b600702016000808201600090556001820160006101000a81549073ffffffffffffffffffffffffffffffffffffffff02191690556002820160009055600382016000905560048201600090556005820160006101000a81549060ff02191690556006820160009055505060038290806001815401808255809150506001900390600052602060002001600090919091909150555b5050565b60008135905061192a8161233c565b92915050565b60008135905061193f81612353565b92915050565b6000813590506119548161236a565b92915050565b6000602082840312156119705761196f6120a5565b5b600061197e8482850161191b565b91505092915050565b6000806040838503121561199e5761199d6120a5565b5b60006119ac85828601611930565b92505060206119bd85828601611945565b9150509250929050565b6000602082840312156119dd576119dc6120a5565b5b60006119eb84828501611945565b91505092915050565b6000611a008383611be6565b60208301905092915050565b611a1581611eaa565b82525050565b6000611a2682611e2a565b611a308185611e42565b9350611a3b83611e1a565b8060005b83811015611a6c578151611a5388826119f4565b9750611a5e83611e35565b925050600181019050611a3f565b5085935050505092915050565b611a8281611f06565b82525050565b6000611a95602a83611e53565b9150611aa0826120aa565b604082019050919050565b6000611ab8601483611e53565b9150611ac3826120f9565b602082019050919050565b6000611adb601683611e53565b9150611ae682612122565b602082019050919050565b6000611afe602b83611e53565b9150611b098261214b565b604082019050919050565b6000611b21601e83611e53565b9150611b2c8261219a565b602082019050919050565b6000611b44602583611e53565b9150611b4f826121c3565b604082019050919050565b6000611b67602583611e53565b9150611b7282612212565b604082019050919050565b6000611b8a602783611e53565b9150611b9582612261565b604082019050919050565b6000611bad602483611e53565b9150611bb8826122b0565b604082019050919050565b6000611bd0600c83611e53565b9150611bdb826122ff565b602082019050919050565b611bef81611eef565b82525050565b611bfe81611eef565b82525050565b611c0d81611ef9565b82525050565b60006020820190508181036000830152611c2d8184611a1b565b905092915050565b60006020820190508181036000830152611c4e81611a88565b9050919050565b60006020820190508181036000830152611c6e81611aab565b9050919050565b60006020820190508181036000830152611c8e81611ace565b9050919050565b60006020820190508181036000830152611cae81611af1565b9050919050565b60006020820190508181036000830152611cce81611b14565b9050919050565b60006020820190508181036000830152611cee81611b37565b9050919050565b60006020820190508181036000830152611d0e81611b5a565b9050919050565b60006020820190508181036000830152611d2e81611b7d565b9050919050565b60006020820190508181036000830152611d4e81611ba0565b9050919050565b60006020820190508181036000830152611d6e81611bc3565b9050919050565b6000602082019050611d8a6000830184611bf5565b92915050565b600060e082019050611da5600083018a611bf5565b611db26020830189611a0c565b611dbf6040830188611bf5565b611dcc6060830187611bf5565b611dd96080830186611bf5565b611de660a0830185611a79565b611df360c0830184611bf5565b98975050505050505050565b6000602082019050611e146000830184611c04565b92915050565b6000819050602082019050919050565b600081519050919050565b6000602082019050919050565b600082825260208201905092915050565b600082825260208201905092915050565b6000611e6f82611eef565b9150611e7a83611eef565b925082821015611e8d57611e8c611fba565b5b828203905092915050565b6000611ea382611ecf565b9050919050565b6000611eb582611ecf565b9050919050565b6000819050611eca82612328565b919050565b600073ffffffffffffffffffffffffffffffffffffffff82169050919050565b6000819050919050565b600060ff82169050919050565b6000611f1182611ebc565b9050919050565b6000611f2382611eef565b91506000821415611f3757611f36611fba565b5b600182039050919050565b6000611f4d82611eef565b91507fffffffffffffffffffffffffffffffffffffffffffffffffffffffffffffffff821415611f8057611f7f611fba565b5b600182019050919050565b7f4e487b7100000000000000000000000000000000000000000000000000000000600052600160045260246000fd5b7f4e487b7100000000000000000000000000000000000000000000000000000000600052601160045260246000fd5b7f4e487b7100000000000000000000000000000000000000000000000000000000600052602160045260246000fd5b7f4e487b7100000000000000000000000000000000000000000000000000000000600052603160045260246000fd5b7f4e487b7100000000000000000000000000000000000000000000000000000000600052603260045260246000fd5b7f4e487b7100000000000000000000000000000000000000000000000000000000600052604160045260246000fd5b600080fd5b7f546869732061646472657373206469646e277420617070726f7665642074686960008201527f73207472616e7366657200000000000000000000000000000000000000000000602082015250565b7f4f776e65722d6f6e6c79206f7065726174696f6e000000000000000000000000600082015250565b7f5472616e736665722071756575652069732066756c6c00000000000000000000600082015250565b7f54686973206164647265737320616c726561647920617070726f76656420746860008201527f6973207472616e73666572000000000000000000000000000000000000000000602082015250565b7f496e73756666696369656e742062616c616e636520696e2057616c6c65740000600082015250565b7f4f6e6c792070656e64696e67207472616e736665722063616e2062652061707060008201527f726f766564000000000000000000000000000000000000000000000000000000602082015250565b7f4f6e6c79204661696c6564207472616e736665722063616e2062652063616e6360008201527f656c6c6564000000000000000000000000000000000000000000000000000000602082015250565b7f4f6e6c79205265616479206f72204661696c656420737461746573206172652060008201527f616c6c6f77656400000000000000000000000000000000000000000000000000602082015250565b7f4f6e6c792070656e64696e67207472616e736665722063616e2062652072657660008201527f6f6b656400000000000000000000000000000000000000000000000000000000602082015250565b7f4f75742d6f662d72616e67650000000000000000000000000000000000000000600082015250565b6007811061233957612338611fe9565b5b50565b61234581611e98565b811461235057600080fd5b50565b61235c81611eaa565b811461236757600080fd5b50565b61237381611eef565b811461237e57600080fd5b5056fea2646970667358221220aa65205a2b062a84805fedc8631e857541e0be3aad854c5ec601e3fbb6df38eb64736f6c63430008050033",
  "immutableReferences": {},
  "source": "//SPDX-License-Identifier: MIT\npragma solidity ^0.8.4;\n\ncontract Wallet5 {\n    // constants\n    uint8 constant public MAX_OWNERS = 255;\n    uint8 constant public MAX_TRANSFERS = 3;\n    \n    // enums\n    enum TransferState {\n        Deleted, // This state should be only reached when the Transfer item is deleted\n        Pending,\n        Ready, // Transient state\n        Completed,\n        Cancelled, // Transient state\n        Failed,\n        Expired // Transient state\n    }\n    \n    // state variables\n    uint id;\n    uint public approvalCount;\n    uint256 public bitmask = 1; // Can accommodate up to 255 owners\n    uint[] public indexQueue; // Holds available transfers' positions\n    address[] private owners_array; // Used to cleanup approvals (not worth it in termas of gas)\n    mapping(address => uint256) public owners; // Used for onlyOwner transferExists(_id) modifier\n    Transfer[MAX_TRANSFERS] public transfers; // Infinitely growing\n    \n    // structs\n    struct Transfer {\n        uint id;\n        address payable recepient;\n        uint amount;\n        uint creationTime;\n        uint approvalCount;\n        TransferState state;\n        uint256 approvalBitmap;\n    }\n    \n    // events\n    event ReportTransferState(\n        uint indexed id,\n        address indexed recepient,\n        uint amount,\n        TransferState indexed state\n    );\n    \n    // modifiers\n    modifier onlyOwner () {\n        require(owners[msg.sender] > 0, \"Owner-only operation\");\n        _;\n    }\n    \n    modifier withinRange (uint _id) {\n        require(_id < MAX_TRANSFERS, \"Out-of-range\");\n        _;\n    }\n    // constructor\n    constructor(uint _approvalCount, address[] memory _owners) {\n        require(_owners.length <= MAX_OWNERS, \"Too many owners\");\n        require(_owners.length >= _approvalCount, \"Approval count cannot exceed the number of owners\");\n        \n        // Initialize bitmask and encode owners via the bits\n        for(uint i = 0; i < _owners.length; i++) {\n            owners_array.push(_owners[i]);\n            if (i == 0) {\n                owners[_owners[i]] = 1;\n            }\n            else {\n                owners[_owners[i]] = owners[_owners[i-1]] << 1;\n                bitmask <<= 1;\n                bitmask |= 1;\n            }\n        }\n        \n        id = 0;\n    }\n\n    //public\n    function deposit () public payable  {}\n    \n    function withdraw (uint amount) public payable onlyOwner {\n        payable(msg.sender).transfer(amount);\n    }\n    \n    function getBalance () public view returns (uint) {\n        return address(this).balance;\n    }\n    \n    function getOwners() public view returns (uint256[] memory){\n        uint256[] memory _addr = new uint256[](owners_array.length);\n        for (uint i = 0; i < owners_array.length; i++) {\n            _addr[i] = owners[owners_array[i]];\n        }\n        return _addr;\n    }\n    \n    function getAvailableIndices() public view returns (uint[] memory) {\n        return indexQueue;\n    }\n    \n    // Should create a new Transfer object\n    // Only owner is allowed to create TransferState\n    // Do not create transfers if the wallet balance is lower than the specified amount\n    // gas: 193435 or 186681\n    function createTransfer (address payable recepient, uint amount) public onlyOwner returns (uint){\n        require(address(this).balance >= amount, \"Insufficient balance in Wallet\");\n        require(id < MAX_TRANSFERS || indexQueue.length > 0, \"Transfer queue is full\");\n        \n        // Get free index\n        uint index;\n        if (indexQueue.length > 0) {\n            //gas: 186681\n            // Get index that was freed\n            index = indexQueue[indexQueue.length - 1];\n            indexQueue.pop();\n        }\n        else {\n            // gas: 193435\n            // Write sequentially\n            index = id; \n            id++; // cannot be more that MAX_TRANSFERS\n        }\n        \n        // Create a new transfer object\n        // approvalCount is set to 1 because the creator is assumed to have approved the transfer he has created\n        Transfer memory new_transfer = Transfer(\n            index,\n            recepient,\n            amount,\n            block.timestamp,\n            1, \n            TransferState.Pending,\n            bitmask ^ owners[msg.sender]\n        );\n       \n        //Register the new transfer\n        transfers[index] = new_transfer;\n        \n        processState(index);\n        \n        return index;\n    }\n    \n    // Approves existing transfers which are in Pending state\n    // Only owner can approve transfers\n    // Each address can approve transation only once\n    // gas: 41279\n    function approveTransfer (uint _id) public onlyOwner withinRange(_id) returns (uint){\n        require(transfers[_id].state == TransferState.Pending, \"Only pending transfer can be approved\");\n        require(transfers[_id].approvalBitmap & owners[msg.sender] != 0, \"This address already approved this transfer\");\n        \n        // Change transfer states\n        transfers[_id].approvalCount++;\n        transfers[_id].approvalBitmap ^= owners[msg.sender];\n        \n        assert(\n            transfers[_id].approvalCount <= approvalCount &&\n            transfers[_id].approvalCount > 1\n        );\n        \n        processState(_id);\n        \n        return _id;\n    }\n    \n    // Revokes approval from existing transfers which are in Pending state\n    // Only owner can revoke transfers\n    // Each address can revoke transation only if it has previously approved it\n    function revokeTransfer (uint _id) public onlyOwner withinRange(_id) returns (uint){\n        require(transfers[_id].state == TransferState.Pending, \"Only pending transfer can be revoked\");\n        require(transfers[_id].approvalBitmap & owners[msg.sender] == 0, \"This address didn't approved this transfer\");\n        \n        // Change transfer states\n        transfers[_id].approvalCount--;\n        transfers[_id].approvalBitmap ^= owners[msg.sender];\n        \n        assert(\n            transfers[_id].approvalCount < approvalCount &&\n            transfers[_id].approvalCount >= 0\n        );\n        \n        processState(_id);\n        \n        return _id;\n    }\n    \n    // Execute transfer that is in Ready state\n    function executeTransfer (uint _id) public payable onlyOwner withinRange(_id) returns (uint) {\n        require(\n            transfers[_id].state == TransferState.Ready ||\n            transfers[_id].state == TransferState.Failed,\n            \"Only Ready or Failed states are allowed\"\n        );\n        \n        if (transfers[_id].recepient.send(transfers[_id].amount))\n            transfers[_id].state = TransferState.Completed;\n        else\n            transfers[_id].state = TransferState.Failed;\n        \n        processState(_id);\n        \n        return _id;\n    }\n    \n    // Cancels transfer that is in Failed state\n    function cancelFailedTransfer (uint _id) public onlyOwner returns (uint) {\n        require(transfers[_id].state == TransferState.Failed, \"Only Failed transfer can be cancelled\");\n        \n        transfers[_id].state == TransferState.Cancelled;\n        \n        processState(_id);\n        \n        return _id;\n    }\n    \n\n    //private\n    function processState(uint _id) private {\n        Transfer storage t = transfers[_id];\n        \n        if (t.state == TransferState.Pending) {\n            // emit event only if the transfer has just been created\n            if (t.approvalCount == 1)\n                emit ReportTransferState(_id, t.recepient, t.amount, t.state);\n            \n            if (t.approvalCount == approvalCount)\n                t.state = TransferState.Ready;\n            else if (t.approvalCount == 0)\n                t.state = TransferState.Cancelled;\n        }\n        \n        if (t.state == TransferState.Ready) {\n            executeTransfer(_id);\n        }\n        \n        if (t.state == TransferState.Failed) {\n            emit ReportTransferState(_id, t.recepient, t.amount, t.state);\n        }\n        \n        if (t.state == TransferState.Cancelled || t.state == TransferState.Completed) {\n            emit ReportTransferState(_id, t.recepient, t.amount, t.state);\n            \n            // with deletion: 53258 for the final approval\n            // w/o deletion: 92449 for the final approval\n            delete transfers[_id];\n            indexQueue.push(_id);\n        }\n    }\n}\n",
  "sourcePath": "/Users/noname/truffle/wallet/contracts/Wallet5.sol",
  "compiler": {
    "name": "solc",
    "version": "0.8.5+commit.a4f2e591.Emscripten.clang"
  },
  "schemaVersion": "3.4.1",
  "updatedAt": "2021-06-25T10:34:03.056Z",
  "networkType": "ethereum",
  "devdoc": {
    "kind": "dev",
    "methods": {},
    "version": 1
  },
  "userdoc": {
    "kind": "user",
    "methods": {},
    "version": 1
  }
}